{
    "_format": "hh-sol-artifact-1",
    "contractName": "AnimeNFT",
    "sourceName": "contracts/AnimeNFT.sol",
    "abi": [
        {
            "inputs": [],
            "stateMutability": "nonpayable",
            "type": "constructor"
        },
        {
            "inputs": [
                {
                    "internalType": "address",
                    "name": "sender",
                    "type": "address"
                },
                {
                    "internalType": "uint256",
                    "name": "tokenId",
                    "type": "uint256"
                },
                {
                    "internalType": "address",
                    "name": "owner",
                    "type": "address"
                }
            ],
            "name": "ERC721IncorrectOwner",
            "type": "error"
        },
        {
            "inputs": [
                {
                    "internalType": "address",
                    "name": "operator",
                    "type": "address"
                },
                {
                    "internalType": "uint256",
                    "name": "tokenId",
                    "type": "uint256"
                }
            ],
            "name": "ERC721InsufficientApproval",
            "type": "error"
        },
        {
            "inputs": [
                {
                    "internalType": "address",
                    "name": "approver",
                    "type": "address"
                }
            ],
            "name": "ERC721InvalidApprover",
            "type": "error"
        },
        {
            "inputs": [
                {
                    "internalType": "address",
                    "name": "operator",
                    "type": "address"
                }
            ],
            "name": "ERC721InvalidOperator",
            "type": "error"
        },
        {
            "inputs": [
                {
                    "internalType": "address",
                    "name": "owner",
                    "type": "address"
                }
            ],
            "name": "ERC721InvalidOwner",
            "type": "error"
        },
        {
            "inputs": [
                {
                    "internalType": "address",
                    "name": "receiver",
                    "type": "address"
                }
            ],
            "name": "ERC721InvalidReceiver",
            "type": "error"
        },
        {
            "inputs": [
                {
                    "internalType": "address",
                    "name": "sender",
                    "type": "address"
                }
            ],
            "name": "ERC721InvalidSender",
            "type": "error"
        },
        {
            "inputs": [
                {
                    "internalType": "uint256",
                    "name": "tokenId",
                    "type": "uint256"
                }
            ],
            "name": "ERC721NonexistentToken",
            "type": "error"
        },
        {
            "inputs": [
                {
                    "internalType": "address",
                    "name": "owner",
                    "type": "address"
                }
            ],
            "name": "OwnableInvalidOwner",
            "type": "error"
        },
        {
            "inputs": [
                {
                    "internalType": "address",
                    "name": "account",
                    "type": "address"
                }
            ],
            "name": "OwnableUnauthorizedAccount",
            "type": "error"
        },
        {
            "anonymous": false,
            "inputs": [
                {
                    "indexed": true,
                    "internalType": "address",
                    "name": "owner",
                    "type": "address"
                },
                {
                    "indexed": true,
                    "internalType": "address",
                    "name": "approved",
                    "type": "address"
                },
                {
                    "indexed": true,
                    "internalType": "uint256",
                    "name": "tokenId",
                    "type": "uint256"
                }
            ],
            "name": "Approval",
            "type": "event"
        },
        {
            "anonymous": false,
            "inputs": [
                {
                    "indexed": true,
                    "internalType": "address",
                    "name": "owner",
                    "type": "address"
                },
                {
                    "indexed": true,
                    "internalType": "address",
                    "name": "operator",
                    "type": "address"
                },
                {
                    "indexed": false,
                    "internalType": "bool",
                    "name": "approved",
                    "type": "bool"
                }
            ],
            "name": "ApprovalForAll",
            "type": "event"
        },
        {
            "anonymous": false,
            "inputs": [
                {
                    "indexed": false,
                    "internalType": "uint256",
                    "name": "_fromTokenId",
                    "type": "uint256"
                },
                {
                    "indexed": false,
                    "internalType": "uint256",
                    "name": "_toTokenId",
                    "type": "uint256"
                }
            ],
            "name": "BatchMetadataUpdate",
            "type": "event"
        },
        {
            "anonymous": false,
            "inputs": [
                {
                    "indexed": false,
                    "internalType": "uint256",
                    "name": "_tokenId",
                    "type": "uint256"
                }
            ],
            "name": "MetadataUpdate",
            "type": "event"
        },
        {
            "anonymous": false,
            "inputs": [
                {
                    "indexed": true,
                    "internalType": "address",
                    "name": "previousOwner",
                    "type": "address"
                },
                {
                    "indexed": true,
                    "internalType": "address",
                    "name": "newOwner",
                    "type": "address"
                }
            ],
            "name": "OwnershipTransferred",
            "type": "event"
        },
        {
            "anonymous": false,
            "inputs": [
                {
                    "indexed": true,
                    "internalType": "address",
                    "name": "from",
                    "type": "address"
                },
                {
                    "indexed": true,
                    "internalType": "address",
                    "name": "to",
                    "type": "address"
                },
                {
                    "indexed": true,
                    "internalType": "uint256",
                    "name": "tokenId",
                    "type": "uint256"
                }
            ],
            "name": "Transfer",
            "type": "event"
        },
        {
            "inputs": [
                {
                    "internalType": "address",
                    "name": "to",
                    "type": "address"
                },
                {
                    "internalType": "uint256",
                    "name": "tokenId",
                    "type": "uint256"
                }
            ],
            "name": "approve",
            "outputs": [],
            "stateMutability": "nonpayable",
            "type": "function"
        },
        {
            "inputs": [
                {
                    "internalType": "address",
                    "name": "owner",
                    "type": "address"
                }
            ],
            "name": "balanceOf",
            "outputs": [
                {
                    "internalType": "uint256",
                    "name": "",
                    "type": "uint256"
                }
            ],
            "stateMutability": "view",
            "type": "function"
        },
        {
            "inputs": [
                {
                    "internalType": "uint256",
                    "name": "tokenId",
                    "type": "uint256"
                }
            ],
            "name": "getApproved",
            "outputs": [
                {
                    "internalType": "address",
                    "name": "",
                    "type": "address"
                }
            ],
            "stateMutability": "view",
            "type": "function"
        },
        {
            "inputs": [
                {
                    "internalType": "address",
                    "name": "owner",
                    "type": "address"
                },
                {
                    "internalType": "address",
                    "name": "operator",
                    "type": "address"
                }
            ],
            "name": "isApprovedForAll",
            "outputs": [
                {
                    "internalType": "bool",
                    "name": "",
                    "type": "bool"
                }
            ],
            "stateMutability": "view",
            "type": "function"
        },
        {
            "inputs": [
                {
                    "internalType": "address",
                    "name": "recipient",
                    "type": "address"
                },
                {
                    "internalType": "string",
                    "name": "tokenURI",
                    "type": "string"
                }
            ],
            "name": "mintAnimeNFT",
            "outputs": [
                {
                    "internalType": "uint256",
                    "name": "",
                    "type": "uint256"
                }
            ],
            "stateMutability": "nonpayable",
            "type": "function"
        },
        {
            "inputs": [],
            "name": "name",
            "outputs": [
                {
                    "internalType": "string",
                    "name": "",
                    "type": "string"
                }
            ],
            "stateMutability": "view",
            "type": "function"
        },
        {
            "inputs": [],
            "name": "owner",
            "outputs": [
                {
                    "internalType": "address",
                    "name": "",
                    "type": "address"
                }
            ],
            "stateMutability": "view",
            "type": "function"
        },
        {
            "inputs": [
                {
                    "internalType": "uint256",
                    "name": "tokenId",
                    "type": "uint256"
                }
            ],
            "name": "ownerOf",
            "outputs": [
                {
                    "internalType": "address",
                    "name": "",
                    "type": "address"
                }
            ],
            "stateMutability": "view",
            "type": "function"
        },
        {
            "inputs": [],
            "name": "renounceOwnership",
            "outputs": [],
            "stateMutability": "nonpayable",
            "type": "function"
        },
        {
            "inputs": [
                {
                    "internalType": "address",
                    "name": "from",
                    "type": "address"
                },
                {
                    "internalType": "address",
                    "name": "to",
                    "type": "address"
                },
                {
                    "internalType": "uint256",
                    "name": "tokenId",
                    "type": "uint256"
                }
            ],
            "name": "safeTransferFrom",
            "outputs": [],
            "stateMutability": "nonpayable",
            "type": "function"
        },
        {
            "inputs": [
                {
                    "internalType": "address",
                    "name": "from",
                    "type": "address"
                },
                {
                    "internalType": "address",
                    "name": "to",
                    "type": "address"
                },
                {
                    "internalType": "uint256",
                    "name": "tokenId",
                    "type": "uint256"
                },
                {
                    "internalType": "bytes",
                    "name": "data",
                    "type": "bytes"
                }
            ],
            "name": "safeTransferFrom",
            "outputs": [],
            "stateMutability": "nonpayable",
            "type": "function"
        },
        {
            "inputs": [
                {
                    "internalType": "address",
                    "name": "operator",
                    "type": "address"
                },
                {
                    "internalType": "bool",
                    "name": "approved",
                    "type": "bool"
                }
            ],
            "name": "setApprovalForAll",
            "outputs": [],
            "stateMutability": "nonpayable",
            "type": "function"
        },
        {
            "inputs": [
                {
                    "internalType": "bytes4",
                    "name": "interfaceId",
                    "type": "bytes4"
                }
            ],
            "name": "supportsInterface",
            "outputs": [
                {
                    "internalType": "bool",
                    "name": "",
                    "type": "bool"
                }
            ],
            "stateMutability": "view",
            "type": "function"
        },
        {
            "inputs": [],
            "name": "symbol",
            "outputs": [
                {
                    "internalType": "string",
                    "name": "",
                    "type": "string"
                }
            ],
            "stateMutability": "view",
            "type": "function"
        },
        {
            "inputs": [
                {
                    "internalType": "uint256",
                    "name": "tokenId",
                    "type": "uint256"
                }
            ],
            "name": "tokenURI",
            "outputs": [
                {
                    "internalType": "string",
                    "name": "",
                    "type": "string"
                }
            ],
            "stateMutability": "view",
            "type": "function"
        },
        {
            "inputs": [
                {
                    "internalType": "address",
                    "name": "from",
                    "type": "address"
                },
                {
                    "internalType": "address",
                    "name": "to",
                    "type": "address"
                },
                {
                    "internalType": "uint256",
                    "name": "tokenId",
                    "type": "uint256"
                }
            ],
            "name": "transferFrom",
            "outputs": [],
            "stateMutability": "nonpayable",
            "type": "function"
        },
        {
            "inputs": [
                {
                    "internalType": "address",
                    "name": "newOwner",
                    "type": "address"
                }
            ],
            "name": "transferOwnership",
            "outputs": [],
            "stateMutability": "nonpayable",
            "type": "function"
        }
    ],
    "bytecode": "0x608060405234801561001057600080fd5b50336040518060400160405280600881526020017f416e696d654e46540000000000000000000000000000000000000000000000008152506040518060400160405280600481526020017f414e465400000000000000000000000000000000000000000000000000000000815250816000908161008d9190610445565b50806001908161009d9190610445565b505050600073ffffffffffffffffffffffffffffffffffffffff168173ffffffffffffffffffffffffffffffffffffffff16036101125760006040517f1e4fbdf70000000000000000000000000000000000000000000000000000000081526004016101099190610558565b60405180910390fd5b6101218161012f60201b60201c565b506001600881905550610573565b6000600760009054906101000a900473ffffffffffffffffffffffffffffffffffffffff16905081600760006101000a81548173ffffffffffffffffffffffffffffffffffffffff021916908373ffffffffffffffffffffffffffffffffffffffff1602179055508173ffffffffffffffffffffffffffffffffffffffff168173ffffffffffffffffffffffffffffffffffffffff167f8be0079c531659141344cd1fd0a4f28419497f9722a3daafe3b4186f6b6457e060405160405180910390a35050565b600081519050919050565b7f4e487b7100000000000000000000000000000000000000000000000000000000600052604160045260246000fd5b7f4e487b7100000000000000000000000000000000000000000000000000000000600052602260045260246000fd5b6000600282049050600182168061027657607f821691505b6020821081036102895761028861022f565b5b50919050565b60008190508160005260206000209050919050565b60006020601f8301049050919050565b600082821b905092915050565b6000600883026102f17fffffffffffffffffffffffffffffffffffffffffffffffffffffffffffffffff826102b4565b6102fb86836102b4565b95508019841693508086168417925050509392505050565b6000819050919050565b6000819050919050565b600061034261033d61033884610313565b61031d565b610313565b9050919050565b6000819050919050565b61035c83610327565b61037061036882610349565b8484546102c1565b825550505050565b600090565b610385610378565b610390818484610353565b505050565b5b818110156103b4576103a960008261037d565b600181019050610396565b5050565b601f8211156103f9576103ca8161028f565b6103d3846102a4565b810160208510156103e2578190505b6103f66103ee856102a4565b830182610395565b50505b505050565b600082821c905092915050565b600061041c600019846008026103fe565b1980831691505092915050565b6000610435838361040b565b9150826002028217905092915050565b61044e826101f5565b67ffffffffffffffff81111561046757610466610200565b5b610471825461025e565b61047c8282856103b8565b600060209050601f8311600181146104af576000841561049d578287015190505b6104a78582610429565b86555061050f565b601f1984166104bd8661028f565b60005b828110156104e5578489015182556001820191506020850194506020810190506104c0565b8683101561050257848901516104fe601f89168261040b565b8355505b6001600288020188555050505b505050505050565b600073ffffffffffffffffffffffffffffffffffffffff82169050919050565b600061054282610517565b9050919050565b61055281610537565b82525050565b600060208201905061056d6000830184610549565b92915050565b61262d806105826000396000f3fe608060405234801561001057600080fd5b506004361061010b5760003560e01c806370a08231116100a2578063a22cb46511610071578063a22cb465146102b8578063b88d4fde146102d4578063c87b56dd146102f0578063e985e9c514610320578063f2fde38b146103505761010b565b806370a0823114610242578063715018a6146102725780638da5cb5b1461027c57806395d89b411461029a5761010b565b8063095ea7b3116100de578063095ea7b3146101be57806323b872dd146101da57806342842e0e146101f65780636352211e146102125761010b565b8063010625ac1461011057806301ffc9a71461014057806306fdde0314610170578063081812fc1461018e575b600080fd5b61012a60048036038101906101259190611be5565b61036c565b6040516101379190611c5a565b60405180910390f35b61015a60048036038101906101559190611ccd565b6103b5565b6040516101679190611d15565b60405180910390f35b610178610416565b6040516101859190611daf565b60405180910390f35b6101a860048036038101906101a39190611dfd565b6104a8565b6040516101b59190611e39565b60405180910390f35b6101d860048036038101906101d39190611e54565b6104c4565b005b6101f460048036038101906101ef9190611e94565b6104da565b005b610210600480360381019061020b9190611e94565b6105dc565b005b61022c60048036038101906102279190611dfd565b6105fc565b6040516102399190611e39565b60405180910390f35b61025c60048036038101906102579190611ee7565b61060e565b6040516102699190611c5a565b60405180910390f35b61027a6106c8565b005b6102846106dc565b6040516102919190611e39565b60405180910390f35b6102a2610706565b6040516102af9190611daf565b60405180910390f35b6102d260048036038101906102cd9190611f40565b610798565b005b6102ee60048036038101906102e99190612021565b6107ae565b005b61030a60048036038101906103059190611dfd565b6107cb565b6040516103179190611daf565b60405180910390f35b61033a600480360381019061033591906120a4565b6108de565b6040516103479190611d15565b60405180910390f35b61036a60048036038101906103659190611ee7565b610972565b005b60006103766109f8565b600060085490506001600860008282546103909190612113565b925050819055506103a18482610a7f565b6103ab8184610b78565b8091505092915050565b6000634906490660e01b7bffffffffffffffffffffffffffffffffffffffffffffffffffffffff1916827bffffffffffffffffffffffffffffffffffffffffffffffffffffffff1916148061040f575061040e82610bd4565b5b9050919050565b60606000805461042590612176565b80601f016020809104026020016040519081016040528092919081815260200182805461045190612176565b801561049e5780601f106104735761010080835404028352916020019161049e565b820191906000526020600020905b81548152906001019060200180831161048157829003601f168201915b5050505050905090565b60006104b382610cb6565b506104bd82610d3e565b9050919050565b6104d682826104d1610d7b565b610d83565b5050565b600073ffffffffffffffffffffffffffffffffffffffff168273ffffffffffffffffffffffffffffffffffffffff160361054c5760006040517f64a0ae920000000000000000000000000000000000000000000000000000000081526004016105439190611e39565b60405180910390fd5b6000610560838361055b610d7b565b610d95565b90508373ffffffffffffffffffffffffffffffffffffffff168173ffffffffffffffffffffffffffffffffffffffff16146105d6578382826040517f64283d7b0000000000000000000000000000000000000000000000000000000081526004016105cd939291906121a7565b60405180910390fd5b50505050565b6105f7838383604051806020016040528060008152506107ae565b505050565b600061060782610cb6565b9050919050565b60008073ffffffffffffffffffffffffffffffffffffffff168273ffffffffffffffffffffffffffffffffffffffff16036106815760006040517f89c62b640000000000000000000000000000000000000000000000000000000081526004016106789190611e39565b60405180910390fd5b600360008373ffffffffffffffffffffffffffffffffffffffff1673ffffffffffffffffffffffffffffffffffffffff168152602001908152602001600020549050919050565b6106d06109f8565b6106da6000610faf565b565b6000600760009054906101000a900473ffffffffffffffffffffffffffffffffffffffff16905090565b60606001805461071590612176565b80601f016020809104026020016040519081016040528092919081815260200182805461074190612176565b801561078e5780601f106107635761010080835404028352916020019161078e565b820191906000526020600020905b81548152906001019060200180831161077157829003601f168201915b5050505050905090565b6107aa6107a3610d7b565b8383611075565b5050565b6107b98484846104da565b6107c5848484846111e4565b50505050565b60606107d682610cb6565b5060006006600084815260200190815260200160002080546107f790612176565b80601f016020809104026020016040519081016040528092919081815260200182805461082390612176565b80156108705780601f1061084557610100808354040283529160200191610870565b820191906000526020600020905b81548152906001019060200180831161085357829003601f168201915b50505050509050600061088161139b565b905060008151036108965781925050506108d9565b6000825111156108cb5780826040516020016108b392919061221a565b604051602081830303815290604052925050506108d9565b6108d4846113b2565b925050505b919050565b6000600560008473ffffffffffffffffffffffffffffffffffffffff1673ffffffffffffffffffffffffffffffffffffffff16815260200190815260200160002060008373ffffffffffffffffffffffffffffffffffffffff1673ffffffffffffffffffffffffffffffffffffffff16815260200190815260200160002060009054906101000a900460ff16905092915050565b61097a6109f8565b600073ffffffffffffffffffffffffffffffffffffffff168173ffffffffffffffffffffffffffffffffffffffff16036109ec5760006040517f1e4fbdf70000000000000000000000000000000000000000000000000000000081526004016109e39190611e39565b60405180910390fd5b6109f581610faf565b50565b610a00610d7b565b73ffffffffffffffffffffffffffffffffffffffff16610a1e6106dc565b73ffffffffffffffffffffffffffffffffffffffff1614610a7d57610a41610d7b565b6040517f118cdaa7000000000000000000000000000000000000000000000000000000008152600401610a749190611e39565b60405180910390fd5b565b600073ffffffffffffffffffffffffffffffffffffffff168273ffffffffffffffffffffffffffffffffffffffff1603610af15760006040517f64a0ae92000000000000000000000000000000000000000000000000000000008152600401610ae89190611e39565b60405180910390fd5b6000610aff83836000610d95565b9050600073ffffffffffffffffffffffffffffffffffffffff168173ffffffffffffffffffffffffffffffffffffffff1614610b735760006040517f73c6ac6e000000000000000000000000000000000000000000000000000000008152600401610b6a9190611e39565b60405180910390fd5b505050565b80600660008481526020019081526020016000209081610b9891906123ea565b507ff8e1a15aba9398e019f0b49df1a4fde98ee17ae345cb5f6b5e2c27f5033e8ce782604051610bc89190611c5a565b60405180910390a15050565b60007f80ac58cd000000000000000000000000000000000000000000000000000000007bffffffffffffffffffffffffffffffffffffffffffffffffffffffff1916827bffffffffffffffffffffffffffffffffffffffffffffffffffffffff19161480610c9f57507f5b5e139f000000000000000000000000000000000000000000000000000000007bffffffffffffffffffffffffffffffffffffffffffffffffffffffff1916827bffffffffffffffffffffffffffffffffffffffffffffffffffffffff1916145b80610caf5750610cae8261141b565b5b9050919050565b600080610cc283611485565b9050600073ffffffffffffffffffffffffffffffffffffffff168173ffffffffffffffffffffffffffffffffffffffff1603610d3557826040517f7e273289000000000000000000000000000000000000000000000000000000008152600401610d2c9190611c5a565b60405180910390fd5b80915050919050565b60006004600083815260200190815260200160002060009054906101000a900473ffffffffffffffffffffffffffffffffffffffff169050919050565b600033905090565b610d9083838360016114c2565b505050565b600080610da184611485565b9050600073ffffffffffffffffffffffffffffffffffffffff168373ffffffffffffffffffffffffffffffffffffffff1614610de357610de2818486611687565b5b600073ffffffffffffffffffffffffffffffffffffffff168173ffffffffffffffffffffffffffffffffffffffff1614610e7457610e256000856000806114c2565b6001600360008373ffffffffffffffffffffffffffffffffffffffff1673ffffffffffffffffffffffffffffffffffffffff168152602001908152602001600020600082825403925050819055505b600073ffffffffffffffffffffffffffffffffffffffff168573ffffffffffffffffffffffffffffffffffffffff1614610ef7576001600360008773ffffffffffffffffffffffffffffffffffffffff1673ffffffffffffffffffffffffffffffffffffffff168152602001908152602001600020600082825401925050819055505b846002600086815260200190815260200160002060006101000a81548173ffffffffffffffffffffffffffffffffffffffff021916908373ffffffffffffffffffffffffffffffffffffffff160217905550838573ffffffffffffffffffffffffffffffffffffffff168273ffffffffffffffffffffffffffffffffffffffff167fddf252ad1be2c89b69c2b068fc378daa952ba7f163c4a11628f55a4df523b3ef60405160405180910390a4809150509392505050565b6000600760009054906101000a900473ffffffffffffffffffffffffffffffffffffffff16905081600760006101000a81548173ffffffffffffffffffffffffffffffffffffffff021916908373ffffffffffffffffffffffffffffffffffffffff1602179055508173ffffffffffffffffffffffffffffffffffffffff168173ffffffffffffffffffffffffffffffffffffffff167f8be0079c531659141344cd1fd0a4f28419497f9722a3daafe3b4186f6b6457e060405160405180910390a35050565b600073ffffffffffffffffffffffffffffffffffffffff168273ffffffffffffffffffffffffffffffffffffffff16036110e657816040517f5b08ba180000000000000000000000000000000000000000000000000000000081526004016110dd9190611e39565b60405180910390fd5b80600560008573ffffffffffffffffffffffffffffffffffffffff1673ffffffffffffffffffffffffffffffffffffffff16815260200190815260200160002060008473ffffffffffffffffffffffffffffffffffffffff1673ffffffffffffffffffffffffffffffffffffffff16815260200190815260200160002060006101000a81548160ff0219169083151502179055508173ffffffffffffffffffffffffffffffffffffffff168373ffffffffffffffffffffffffffffffffffffffff167f17307eab39ab6107e8899845ad3d59bd9653f200f220920489ca2b5937696c31836040516111d79190611d15565b60405180910390a3505050565b60008373ffffffffffffffffffffffffffffffffffffffff163b1115611395578273ffffffffffffffffffffffffffffffffffffffff1663150b7a02611228610d7b565b8685856040518563ffffffff1660e01b815260040161124a9493929190612511565b6020604051808303816000875af192505050801561128657506040513d601f19601f820116820180604052508101906112839190612572565b60015b61130a573d80600081146112b6576040519150601f19603f3d011682016040523d82523d6000602084013e6112bb565b606091505b50600081510361130257836040517f64a0ae920000000000000000000000000000000000000000000000000000000081526004016112f99190611e39565b60405180910390fd5b805181602001fd5b63150b7a0260e01b7bffffffffffffffffffffffffffffffffffffffffffffffffffffffff1916817bffffffffffffffffffffffffffffffffffffffffffffffffffffffff19161461139357836040517f64a0ae9200000000000000000000000000000000000000000000000000000000815260040161138a9190611e39565b60405180910390fd5b505b50505050565b606060405180602001604052806000815250905090565b60606113bd82610cb6565b5060006113c861139b565b905060008151116113e85760405180602001604052806000815250611413565b806113f28461174b565b60405160200161140392919061221a565b6040516020818303038152906040525b915050919050565b60007f01ffc9a7000000000000000000000000000000000000000000000000000000007bffffffffffffffffffffffffffffffffffffffffffffffffffffffff1916827bffffffffffffffffffffffffffffffffffffffffffffffffffffffff1916149050919050565b60006002600083815260200190815260200160002060009054906101000a900473ffffffffffffffffffffffffffffffffffffffff169050919050565b80806114fb5750600073ffffffffffffffffffffffffffffffffffffffff168273ffffffffffffffffffffffffffffffffffffffff1614155b1561162f57600061150b84610cb6565b9050600073ffffffffffffffffffffffffffffffffffffffff168373ffffffffffffffffffffffffffffffffffffffff161415801561157657508273ffffffffffffffffffffffffffffffffffffffff168173ffffffffffffffffffffffffffffffffffffffff1614155b8015611589575061158781846108de565b155b156115cb57826040517fa9fbf51f0000000000000000000000000000000000000000000000000000000081526004016115c29190611e39565b60405180910390fd5b811561162d57838573ffffffffffffffffffffffffffffffffffffffff168273ffffffffffffffffffffffffffffffffffffffff167f8c5be1e5ebec7d5bd14f71427d1e84f3dd0314c0f7b2291e5b200ac8c7c3b92560405160405180910390a45b505b836004600085815260200190815260200160002060006101000a81548173ffffffffffffffffffffffffffffffffffffffff021916908373ffffffffffffffffffffffffffffffffffffffff16021790555050505050565b611692838383611819565b61174657600073ffffffffffffffffffffffffffffffffffffffff168373ffffffffffffffffffffffffffffffffffffffff160361170757806040517f7e2732890000000000000000000000000000000000000000000000000000000081526004016116fe9190611c5a565b60405180910390fd5b81816040517f177e802f00000000000000000000000000000000000000000000000000000000815260040161173d92919061259f565b60405180910390fd5b505050565b60606000600161175a846118da565b01905060008167ffffffffffffffff81111561177957611778611aba565b5b6040519080825280601f01601f1916602001820160405280156117ab5781602001600182028036833780820191505090505b509050600082602001820190505b60011561180e578080600190039150507f3031323334353637383961626364656600000000000000000000000000000000600a86061a8153600a8581611802576118016125c8565b5b049450600085036117b9575b819350505050919050565b60008073ffffffffffffffffffffffffffffffffffffffff168373ffffffffffffffffffffffffffffffffffffffff16141580156118d157508273ffffffffffffffffffffffffffffffffffffffff168473ffffffffffffffffffffffffffffffffffffffff161480611892575061189184846108de565b5b806118d057508273ffffffffffffffffffffffffffffffffffffffff166118b883610d3e565b73ffffffffffffffffffffffffffffffffffffffff16145b5b90509392505050565b600080600090507a184f03e93ff9f4daa797ed6e38ed64bf6a1f0100000000000000008310611938577a184f03e93ff9f4daa797ed6e38ed64bf6a1f010000000000000000838161192e5761192d6125c8565b5b0492506040810190505b6d04ee2d6d415b85acef81000000008310611975576d04ee2d6d415b85acef8100000000838161196b5761196a6125c8565b5b0492506020810190505b662386f26fc1000083106119a457662386f26fc10000838161199a576119996125c8565b5b0492506010810190505b6305f5e10083106119cd576305f5e10083816119c3576119c26125c8565b5b0492506008810190505b61271083106119f25761271083816119e8576119e76125c8565b5b0492506004810190505b60648310611a155760648381611a0b57611a0a6125c8565b5b0492506002810190505b600a8310611a24576001810190505b80915050919050565b6000604051905090565b600080fd5b600080fd5b600073ffffffffffffffffffffffffffffffffffffffff82169050919050565b6000611a6c82611a41565b9050919050565b611a7c81611a61565b8114611a8757600080fd5b50565b600081359050611a9981611a73565b92915050565b600080fd5b600080fd5b6000601f19601f8301169050919050565b7f4e487b7100000000000000000000000000000000000000000000000000000000600052604160045260246000fd5b611af282611aa9565b810181811067ffffffffffffffff82111715611b1157611b10611aba565b5b80604052505050565b6000611b24611a2d565b9050611b308282611ae9565b919050565b600067ffffffffffffffff821115611b5057611b4f611aba565b5b611b5982611aa9565b9050602081019050919050565b82818337600083830152505050565b6000611b88611b8384611b35565b611b1a565b905082815260208101848484011115611ba457611ba3611aa4565b5b611baf848285611b66565b509392505050565b600082601f830112611bcc57611bcb611a9f565b5b8135611bdc848260208601611b75565b91505092915050565b60008060408385031215611bfc57611bfb611a37565b5b6000611c0a85828601611a8a565b925050602083013567ffffffffffffffff811115611c2b57611c2a611a3c565b5b611c3785828601611bb7565b9150509250929050565b6000819050919050565b611c5481611c41565b82525050565b6000602082019050611c6f6000830184611c4b565b92915050565b60007fffffffff0000000000000000000000000000000000000000000000000000000082169050919050565b611caa81611c75565b8114611cb557600080fd5b50565b600081359050611cc781611ca1565b92915050565b600060208284031215611ce357611ce2611a37565b5b6000611cf184828501611cb8565b91505092915050565b60008115159050919050565b611d0f81611cfa565b82525050565b6000602082019050611d2a6000830184611d06565b92915050565b600081519050919050565b600082825260208201905092915050565b60005b83811015611d6a578082015181840152602081019050611d4f565b60008484015250505050565b6000611d8182611d30565b611d8b8185611d3b565b9350611d9b818560208601611d4c565b611da481611aa9565b840191505092915050565b60006020820190508181036000830152611dc98184611d76565b905092915050565b611dda81611c41565b8114611de557600080fd5b50565b600081359050611df781611dd1565b92915050565b600060208284031215611e1357611e12611a37565b5b6000611e2184828501611de8565b91505092915050565b611e3381611a61565b82525050565b6000602082019050611e4e6000830184611e2a565b92915050565b60008060408385031215611e6b57611e6a611a37565b5b6000611e7985828601611a8a565b9250506020611e8a85828601611de8565b9150509250929050565b600080600060608486031215611ead57611eac611a37565b5b6000611ebb86828701611a8a565b9350506020611ecc86828701611a8a565b9250506040611edd86828701611de8565b9150509250925092565b600060208284031215611efd57611efc611a37565b5b6000611f0b84828501611a8a565b91505092915050565b611f1d81611cfa565b8114611f2857600080fd5b50565b600081359050611f3a81611f14565b92915050565b60008060408385031215611f5757611f56611a37565b5b6000611f6585828601611a8a565b9250506020611f7685828601611f2b565b9150509250929050565b600067ffffffffffffffff821115611f9b57611f9a611aba565b5b611fa482611aa9565b9050602081019050919050565b6000611fc4611fbf84611f80565b611b1a565b905082815260208101848484011115611fe057611fdf611aa4565b5b611feb848285611b66565b509392505050565b600082601f83011261200857612007611a9f565b5b8135612018848260208601611fb1565b91505092915050565b6000806000806080858703121561203b5761203a611a37565b5b600061204987828801611a8a565b945050602061205a87828801611a8a565b935050604061206b87828801611de8565b925050606085013567ffffffffffffffff81111561208c5761208b611a3c565b5b61209887828801611ff3565b91505092959194509250565b600080604083850312156120bb576120ba611a37565b5b60006120c985828601611a8a565b92505060206120da85828601611a8a565b9150509250929050565b7f4e487b7100000000000000000000000000000000000000000000000000000000600052601160045260246000fd5b600061211e82611c41565b915061212983611c41565b9250828201905080821115612141576121406120e4565b5b92915050565b7f4e487b7100000000000000000000000000000000000000000000000000000000600052602260045260246000fd5b6000600282049050600182168061218e57607f821691505b6020821081036121a1576121a0612147565b5b50919050565b60006060820190506121bc6000830186611e2a565b6121c96020830185611c4b565b6121d66040830184611e2a565b949350505050565b600081905092915050565b60006121f482611d30565b6121fe81856121de565b935061220e818560208601611d4c565b80840191505092915050565b600061222682856121e9565b915061223282846121e9565b91508190509392505050565b60008190508160005260206000209050919050565b60006020601f8301049050919050565b600082821b905092915050565b6000600883026122a07fffffffffffffffffffffffffffffffffffffffffffffffffffffffffffffffff82612263565b6122aa8683612263565b95508019841693508086168417925050509392505050565b6000819050919050565b60006122e76122e26122dd84611c41565b6122c2565b611c41565b9050919050565b6000819050919050565b612301836122cc565b61231561230d826122ee565b848454612270565b825550505050565b600090565b61232a61231d565b6123358184846122f8565b505050565b5b818110156123595761234e600082612322565b60018101905061233b565b5050565b601f82111561239e5761236f8161223e565b61237884612253565b81016020851015612387578190505b61239b61239385612253565b83018261233a565b50505b505050565b600082821c905092915050565b60006123c1600019846008026123a3565b1980831691505092915050565b60006123da83836123b0565b9150826002028217905092915050565b6123f382611d30565b67ffffffffffffffff81111561240c5761240b611aba565b5b6124168254612176565b61242182828561235d565b600060209050601f8311600181146124545760008415612442578287015190505b61244c85826123ce565b8655506124b4565b601f1984166124628661223e565b60005b8281101561248a57848901518255600182019150602085019450602081019050612465565b868310156124a757848901516124a3601f8916826123b0565b8355505b6001600288020188555050505b505050505050565b600081519050919050565b600082825260208201905092915050565b60006124e3826124bc565b6124ed81856124c7565b93506124fd818560208601611d4c565b61250681611aa9565b840191505092915050565b60006080820190506125266000830187611e2a565b6125336020830186611e2a565b6125406040830185611c4b565b818103606083015261255281846124d8565b905095945050505050565b60008151905061256c81611ca1565b92915050565b60006020828403121561258857612587611a37565b5b60006125968482850161255d565b91505092915050565b60006040820190506125b46000830185611e2a565b6125c16020830184611c4b565b9392505050565b7f4e487b7100000000000000000000000000000000000000000000000000000000600052601260045260246000fdfea2646970667358221220ff473269f0a9613ae8c2ed2dbe933ef56001eb1a81be1859c6061e9fa34f315d64736f6c634300081b0033",
    "linkReferences": {},
    "deployedLinkReferences": {}
}